{
  "_format": "hh-sol-artifact-1",
  "contractName": "Aryton",
  "sourceName": "contracts/stake/Aryton.sol",
  "abi": [
    {
      "inputs": [
        {
          "internalType": "string",
          "name": "_tokenName",
          "type": "string"
        },
        {
          "internalType": "string",
          "name": "_tokenSymbol",
          "type": "string"
        },
        {
          "internalType": "uint256",
          "name": "_supply",
          "type": "uint256"
        }
      ],
      "stateMutability": "nonpayable",
      "type": "constructor"
    },
    {
      "inputs": [
        {
          "internalType": "address",
          "name": "spender",
          "type": "address"
        },
        {
          "internalType": "uint256",
          "name": "allowance",
          "type": "uint256"
        },
        {
          "internalType": "uint256",
          "name": "needed",
          "type": "uint256"
        }
      ],
      "name": "ERC20InsufficientAllowance",
      "type": "error"
    },
    {
      "inputs": [
        {
          "internalType": "address",
          "name": "sender",
          "type": "address"
        },
        {
          "internalType": "uint256",
          "name": "balance",
          "type": "uint256"
        },
        {
          "internalType": "uint256",
          "name": "needed",
          "type": "uint256"
        }
      ],
      "name": "ERC20InsufficientBalance",
      "type": "error"
    },
    {
      "inputs": [
        {
          "internalType": "address",
          "name": "approver",
          "type": "address"
        }
      ],
      "name": "ERC20InvalidApprover",
      "type": "error"
    },
    {
      "inputs": [
        {
          "internalType": "address",
          "name": "receiver",
          "type": "address"
        }
      ],
      "name": "ERC20InvalidReceiver",
      "type": "error"
    },
    {
      "inputs": [
        {
          "internalType": "address",
          "name": "sender",
          "type": "address"
        }
      ],
      "name": "ERC20InvalidSender",
      "type": "error"
    },
    {
      "inputs": [
        {
          "internalType": "address",
          "name": "spender",
          "type": "address"
        }
      ],
      "name": "ERC20InvalidSpender",
      "type": "error"
    },
    {
      "inputs": [
        {
          "internalType": "address",
          "name": "owner",
          "type": "address"
        }
      ],
      "name": "OwnableInvalidOwner",
      "type": "error"
    },
    {
      "inputs": [
        {
          "internalType": "address",
          "name": "account",
          "type": "address"
        }
      ],
      "name": "OwnableUnauthorizedAccount",
      "type": "error"
    },
    {
      "anonymous": false,
      "inputs": [
        {
          "indexed": true,
          "internalType": "address",
          "name": "owner",
          "type": "address"
        },
        {
          "indexed": true,
          "internalType": "address",
          "name": "spender",
          "type": "address"
        },
        {
          "indexed": false,
          "internalType": "uint256",
          "name": "value",
          "type": "uint256"
        }
      ],
      "name": "Approval",
      "type": "event"
    },
    {
      "anonymous": false,
      "inputs": [
        {
          "indexed": true,
          "internalType": "string",
          "name": "sale",
          "type": "string"
        },
        {
          "indexed": true,
          "internalType": "uint256",
          "name": "supply",
          "type": "uint256"
        },
        {
          "indexed": true,
          "internalType": "address",
          "name": "walletAddress",
          "type": "address"
        }
      ],
      "name": "MintedWalletSuupply",
      "type": "event"
    },
    {
      "anonymous": false,
      "inputs": [
        {
          "indexed": true,
          "internalType": "address",
          "name": "previousOwner",
          "type": "address"
        },
        {
          "indexed": true,
          "internalType": "address",
          "name": "newOwner",
          "type": "address"
        }
      ],
      "name": "OwnershipTransferred",
      "type": "event"
    },
    {
      "anonymous": false,
      "inputs": [
        {
          "indexed": true,
          "internalType": "address",
          "name": "from",
          "type": "address"
        },
        {
          "indexed": true,
          "internalType": "address",
          "name": "to",
          "type": "address"
        },
        {
          "indexed": false,
          "internalType": "uint256",
          "name": "value",
          "type": "uint256"
        }
      ],
      "name": "Transfer",
      "type": "event"
    },
    {
      "inputs": [],
      "name": "MAX_TOTAL_SUPPLY",
      "outputs": [
        {
          "internalType": "uint160",
          "name": "",
          "type": "uint160"
        }
      ],
      "stateMutability": "view",
      "type": "function"
    },
    {
      "inputs": [],
      "name": "_latestSale",
      "outputs": [
        {
          "internalType": "string",
          "name": "",
          "type": "string"
        }
      ],
      "stateMutability": "view",
      "type": "function"
    },
    {
      "inputs": [
        {
          "internalType": "string",
          "name": "_saleName",
          "type": "string"
        },
        {
          "internalType": "address",
          "name": "_walletAddress",
          "type": "address"
        },
        {
          "internalType": "uint256",
          "name": "_supply",
          "type": "uint256"
        }
      ],
      "name": "_setSaleSupplyWallet",
      "outputs": [],
      "stateMutability": "nonpayable",
      "type": "function"
    },
    {
      "inputs": [
        {
          "internalType": "address",
          "name": "owner",
          "type": "address"
        },
        {
          "internalType": "address",
          "name": "spender",
          "type": "address"
        }
      ],
      "name": "allowance",
      "outputs": [
        {
          "internalType": "uint256",
          "name": "",
          "type": "uint256"
        }
      ],
      "stateMutability": "view",
      "type": "function"
    },
    {
      "inputs": [
        {
          "internalType": "address",
          "name": "spender",
          "type": "address"
        },
        {
          "internalType": "uint256",
          "name": "value",
          "type": "uint256"
        }
      ],
      "name": "approve",
      "outputs": [
        {
          "internalType": "bool",
          "name": "",
          "type": "bool"
        }
      ],
      "stateMutability": "nonpayable",
      "type": "function"
    },
    {
      "inputs": [
        {
          "internalType": "string",
          "name": "",
          "type": "string"
        }
      ],
      "name": "assignedWalletToSale",
      "outputs": [
        {
          "internalType": "address",
          "name": "",
          "type": "address"
        }
      ],
      "stateMutability": "view",
      "type": "function"
    },
    {
      "inputs": [
        {
          "internalType": "address",
          "name": "account",
          "type": "address"
        }
      ],
      "name": "balanceOf",
      "outputs": [
        {
          "internalType": "uint256",
          "name": "",
          "type": "uint256"
        }
      ],
      "stateMutability": "view",
      "type": "function"
    },
    {
      "inputs": [],
      "name": "decimals",
      "outputs": [
        {
          "internalType": "uint8",
          "name": "",
          "type": "uint8"
        }
      ],
      "stateMutability": "view",
      "type": "function"
    },
    {
      "inputs": [
        {
          "internalType": "string",
          "name": "saleName",
          "type": "string"
        }
      ],
      "name": "getAssignedWalletAndSupply",
      "outputs": [
        {
          "internalType": "uint256",
          "name": "",
          "type": "uint256"
        },
        {
          "internalType": "address",
          "name": "",
          "type": "address"
        }
      ],
      "stateMutability": "view",
      "type": "function"
    },
    {
      "inputs": [],
      "name": "getLatestSale",
      "outputs": [
        {
          "internalType": "string",
          "name": "",
          "type": "string"
        }
      ],
      "stateMutability": "view",
      "type": "function"
    },
    {
      "inputs": [],
      "name": "getMaxSupply",
      "outputs": [
        {
          "internalType": "uint160",
          "name": "",
          "type": "uint160"
        }
      ],
      "stateMutability": "pure",
      "type": "function"
    },
    {
      "inputs": [
        {
          "internalType": "string",
          "name": "saleName",
          "type": "string"
        },
        {
          "internalType": "address",
          "name": "walletAddress",
          "type": "address"
        },
        {
          "internalType": "uint256",
          "name": "supply",
          "type": "uint256"
        }
      ],
      "name": "mint",
      "outputs": [],
      "stateMutability": "nonpayable",
      "type": "function"
    },
    {
      "inputs": [
        {
          "internalType": "string",
          "name": "",
          "type": "string"
        },
        {
          "internalType": "address",
          "name": "",
          "type": "address"
        }
      ],
      "name": "mintedWalletSupply",
      "outputs": [
        {
          "internalType": "uint256",
          "name": "",
          "type": "uint256"
        }
      ],
      "stateMutability": "view",
      "type": "function"
    },
    {
      "inputs": [],
      "name": "name",
      "outputs": [
        {
          "internalType": "string",
          "name": "",
          "type": "string"
        }
      ],
      "stateMutability": "view",
      "type": "function"
    },
    {
      "inputs": [],
      "name": "owner",
      "outputs": [
        {
          "internalType": "address",
          "name": "",
          "type": "address"
        }
      ],
      "stateMutability": "view",
      "type": "function"
    },
    {
      "inputs": [],
      "name": "renounceOwnership",
      "outputs": [],
      "stateMutability": "nonpayable",
      "type": "function"
    },
    {
      "inputs": [],
      "name": "symbol",
      "outputs": [
        {
          "internalType": "string",
          "name": "",
          "type": "string"
        }
      ],
      "stateMutability": "view",
      "type": "function"
    },
    {
      "inputs": [],
      "name": "totalSupply",
      "outputs": [
        {
          "internalType": "uint256",
          "name": "",
          "type": "uint256"
        }
      ],
      "stateMutability": "view",
      "type": "function"
    },
    {
      "inputs": [
        {
          "internalType": "address",
          "name": "to",
          "type": "address"
        },
        {
          "internalType": "uint256",
          "name": "value",
          "type": "uint256"
        }
      ],
      "name": "transfer",
      "outputs": [
        {
          "internalType": "bool",
          "name": "",
          "type": "bool"
        }
      ],
      "stateMutability": "nonpayable",
      "type": "function"
    },
    {
      "inputs": [
        {
          "internalType": "address",
          "name": "from",
          "type": "address"
        },
        {
          "internalType": "address",
          "name": "to",
          "type": "address"
        },
        {
          "internalType": "uint256",
          "name": "value",
          "type": "uint256"
        }
      ],
      "name": "transferFrom",
      "outputs": [
        {
          "internalType": "bool",
          "name": "",
          "type": "bool"
        }
      ],
      "stateMutability": "nonpayable",
      "type": "function"
    },
    {
      "inputs": [
        {
          "internalType": "address",
          "name": "newOwner",
          "type": "address"
        }
      ],
      "name": "transferOwnership",
      "outputs": [],
      "stateMutability": "nonpayable",
      "type": "function"
    }
  ],
  "bytecode": "0x60c0604052600d60809081526c465249454e445f46414d494c5960981b60a0526006906200002e908262000686565b503480156200003c57600080fd5b506040516200194f3803806200194f8339810160408190526200005f9162000809565b338383600362000070838262000686565b5060046200007f828262000686565b5050506001600160a01b038116620000b257604051631e4fbdf760e01b8152600060048201526024015b60405180910390fd5b620000bd816200016c565b506200016360068054620000d190620005f7565b80601f0160208091040260200160405190810160405280929190818152602001828054620000ff90620005f7565b8015620001505780601f10620001245761010080835404028352916020019162000150565b820191906000526020600020905b8154815290600101906020018083116200013257829003601f168201915b50505050503383620001be60201b60201c565b505050620008f6565b600580546001600160a01b038381166001600160a01b0319831681179093556040519116919082907f8be0079c531659141344cd1fd0a4f28419497f9722a3daafe3b4186f6b6457e090600090a35050565b620001c862000367565b60008111620002325760405162461bcd60e51b815260206004820152602f60248201527f45524332303a3a204d696e7420616d6f756e742073686f756c6420626520677260448201526e6561746572207468616e207a65726f60881b6064820152608401620000a9565b6001600160a01b038216620002a35760405162461bcd60e51b815260206004820152603060248201527f45524332303a3a20757365722073686f756c64206e6f7420626520657175616c60448201526f20746f2061646472657373207a65726f60801b6064820152608401620000a9565b6000620002af60025490565b620002c6906a3e09de2596099e2b00000062000892565b9050806001600160a01b03168210620003485760405162461bcd60e51b815260206004820152603a60248201527f45524332303a3a204d696e7420616d6f756e742073686f756c64206e6f74206260448201527f652067726561746572207468616e203735206d696c6c696f6e2e0000000000006064820152608401620000a9565b62000354838362000398565b62000361848484620003d6565b50505050565b6005546001600160a01b03163314620003965760405163118cdaa760e01b8152336004820152602401620000a9565b565b6001600160a01b038216620003c45760405163ec442f0560e01b815260006004820152602401620000a9565b620003d260008383620004ae565b5050565b6006620003e4848262000686565b5081600784604051620003f89190620008bc565b908152602001604051809103902060006101000a8154816001600160a01b0302191690836001600160a01b03160217905550806008846040516200043d9190620008bc565b9081526040805191829003602090810183206001600160a01b0387166000818152919092529190912092909255829062000479908690620008bc565b604051908190038120907f42e47c5f4ef490fa970d56126f2584efc00f3485d64635df2e3d0f587d4211b790600090a4505050565b6001600160a01b038316620004dd578060026000828254620004d19190620008da565b90915550620005519050565b6001600160a01b03831660009081526020819052604090205481811015620005325760405163391434e360e21b81526001600160a01b03851660048201526024810182905260448101839052606401620000a9565b6001600160a01b03841660009081526020819052604090209082900390555b6001600160a01b0382166200056f576002805482900390556200058e565b6001600160a01b03821660009081526020819052604090208054820190555b816001600160a01b0316836001600160a01b03167fddf252ad1be2c89b69c2b068fc378daa952ba7f163c4a11628f55a4df523b3ef83604051620005d491815260200190565b60405180910390a3505050565b634e487b7160e01b600052604160045260246000fd5b600181811c908216806200060c57607f821691505b6020821081036200062d57634e487b7160e01b600052602260045260246000fd5b50919050565b601f8211156200068157600081815260208120601f850160051c810160208610156200065c5750805b601f850160051c820191505b818110156200067d5782815560010162000668565b5050505b505050565b81516001600160401b03811115620006a257620006a2620005e1565b620006ba81620006b38454620005f7565b8462000633565b602080601f831160018114620006f25760008415620006d95750858301515b600019600386901b1c1916600185901b1785556200067d565b600085815260208120601f198616915b82811015620007235788860151825594840194600190910190840162000702565b5085821015620007425787850151600019600388901b60f8161c191681555b5050505050600190811b01905550565b60005b838110156200076f57818101518382015260200162000755565b50506000910152565b600082601f8301126200078a57600080fd5b81516001600160401b0380821115620007a757620007a7620005e1565b604051601f8301601f19908116603f01168101908282118183101715620007d257620007d2620005e1565b81604052838152866020858801011115620007ec57600080fd5b620007ff84602083016020890162000752565b9695505050505050565b6000806000606084860312156200081f57600080fd5b83516001600160401b03808211156200083757600080fd5b620008458783880162000778565b945060208601519150808211156200085c57600080fd5b506200086b8682870162000778565b925050604084015190509250925092565b634e487b7160e01b600052601160045260246000fd5b6001600160a01b03828116828216039080821115620008b557620008b56200087c565b5092915050565b60008251620008d081846020870162000752565b9190910192915050565b80820180821115620008f057620008f06200087c565b92915050565b61104980620009066000396000f3fe608060405234801561001057600080fd5b50600436106101375760003560e01c80634c0f38c2116100b8578063944df0451161007c578063944df045146102f157806395d89b41146102f9578063a205a97b14610301578063a9059cbb14610309578063dd62ed3e1461031c578063f2fde38b1461035557600080fd5b80634c0f38c21461028b57806370a082311461029c578063715018a6146102c55780637e8816b9146102cd5780638da5cb5b146102e057600080fd5b806323b872dd116100ff57806323b872dd14610207578063313ce5671461021a57806333039d3d146102295780633779a8e71461023b578063404cb5931461027657600080fd5b8063060a9aeb1461013c57806306fdde0314610171578063095ea7b31461018657806318160ddd146101a957806321d1587f146101bb575b600080fd5b61014f61014a366004610c68565b610368565b604080519283526001600160a01b039091166020830152015b60405180910390f35b6101796103d9565b6040516101689190610cc9565b610199610194366004610d18565b61046b565b6040519015158152602001610168565b6002545b604051908152602001610168565b6101ef6101c9366004610c68565b80516020818301810180516007825292820191909301209152546001600160a01b031681565b6040516001600160a01b039091168152602001610168565b610199610215366004610d42565b610485565b60405160128152602001610168565b6101ef6a3e09de2596099e2b00000081565b6101ad610249366004610d7e565b81516020818401810180516008825292820194820194909420919093529091526000908152604090205481565b610289610284366004610dcc565b6104a9565b005b6a3e09de2596099e2b0000006101ef565b6101ad6102aa366004610e13565b6001600160a01b031660009081526020819052604090205490565b610289610579565b6102896102db366004610dcc565b61058d565b6005546001600160a01b03166101ef565b61017961072c565b61017961073b565b61017961074a565b610199610317366004610d18565b6107d8565b6101ad61032a366004610e35565b6001600160a01b03918216600090815260016020908152604080832093909416825291909152205490565b610289610363366004610e13565b6107e6565b600080600060078460405161037d9190610e5f565b908152604051908190036020018120546001600160a01b031691506000906008906103a9908790610e5f565b90815260408051602092819003830190206001600160a01b03851660009081529252902054959194509092505050565b6060600380546103e890610e7b565b80601f016020809104026020016040519081016040528092919081815260200182805461041490610e7b565b80156104615780601f1061043657610100808354040283529160200191610461565b820191906000526020600020905b81548152906001019060200180831161044457829003601f168201915b5050505050905090565b600033610479818585610824565b60019150505b92915050565b600033610493858285610836565b61049e8585856108ae565b506001949350505050565b60066104b58482610f03565b50816007846040516104c79190610e5f565b908152602001604051809103902060006101000a8154816001600160a01b0302191690836001600160a01b031602179055508060088460405161050a9190610e5f565b9081526040805191829003602090810183206001600160a01b03871660008181529190925291909120929092558290610544908690610e5f565b604051908190038120907f42e47c5f4ef490fa970d56126f2584efc00f3485d64635df2e3d0f587d4211b790600090a4505050565b61058161090d565b61058b600061093a565b565b61059561090d565b600081116106025760405162461bcd60e51b815260206004820152602f60248201527f45524332303a3a204d696e7420616d6f756e742073686f756c6420626520677260448201526e6561746572207468616e207a65726f60881b60648201526084015b60405180910390fd5b6001600160a01b0382166106715760405162461bcd60e51b815260206004820152603060248201527f45524332303a3a20757365722073686f756c64206e6f7420626520657175616c60448201526f20746f2061646472657373207a65726f60801b60648201526084016105f9565b600061067c60025490565b610691906a3e09de2596099e2b000000610fd9565b9050806001600160a01b031682106107115760405162461bcd60e51b815260206004820152603a60248201527f45524332303a3a204d696e7420616d6f756e742073686f756c64206e6f74206260448201527f652067726561746572207468616e203735206d696c6c696f6e2e00000000000060648201526084016105f9565b61071b838361098c565b6107268484846104a9565b50505050565b6060600680546103e890610e7b565b6060600480546103e890610e7b565b6006805461075790610e7b565b80601f016020809104026020016040519081016040528092919081815260200182805461078390610e7b565b80156107d05780601f106107a5576101008083540402835291602001916107d0565b820191906000526020600020905b8154815290600101906020018083116107b357829003601f168201915b505050505081565b6000336104798185856108ae565b6107ee61090d565b6001600160a01b03811661081857604051631e4fbdf760e01b8152600060048201526024016105f9565b6108218161093a565b50565b61083183838360016109c6565b505050565b6001600160a01b038381166000908152600160209081526040808320938616835292905220546000198114610726578181101561089f57604051637dc7a0d960e11b81526001600160a01b038416600482015260248101829052604481018390526064016105f9565b610726848484840360006109c6565b6001600160a01b0383166108d857604051634b637e8f60e11b8152600060048201526024016105f9565b6001600160a01b0382166109025760405163ec442f0560e01b8152600060048201526024016105f9565b610831838383610a9b565b6005546001600160a01b0316331461058b5760405163118cdaa760e01b81523360048201526024016105f9565b600580546001600160a01b038381166001600160a01b0319831681179093556040519116919082907f8be0079c531659141344cd1fd0a4f28419497f9722a3daafe3b4186f6b6457e090600090a35050565b6001600160a01b0382166109b65760405163ec442f0560e01b8152600060048201526024016105f9565b6109c260008383610a9b565b5050565b6001600160a01b0384166109f05760405163e602df0560e01b8152600060048201526024016105f9565b6001600160a01b038316610a1a57604051634a1406b160e11b8152600060048201526024016105f9565b6001600160a01b038085166000908152600160209081526040808320938716835292905220829055801561072657826001600160a01b0316846001600160a01b03167f8c5be1e5ebec7d5bd14f71427d1e84f3dd0314c0f7b2291e5b200ac8c7c3b92584604051610a8d91815260200190565b60405180910390a350505050565b6001600160a01b038316610ac6578060026000828254610abb9190611000565b90915550610b389050565b6001600160a01b03831660009081526020819052604090205481811015610b195760405163391434e360e21b81526001600160a01b038516600482015260248101829052604481018390526064016105f9565b6001600160a01b03841660009081526020819052604090209082900390555b6001600160a01b038216610b5457600280548290039055610b73565b6001600160a01b03821660009081526020819052604090208054820190555b816001600160a01b0316836001600160a01b03167fddf252ad1be2c89b69c2b068fc378daa952ba7f163c4a11628f55a4df523b3ef83604051610bb891815260200190565b60405180910390a3505050565b634e487b7160e01b600052604160045260246000fd5b600082601f830112610bec57600080fd5b813567ffffffffffffffff80821115610c0757610c07610bc5565b604051601f8301601f19908116603f01168101908282118183101715610c2f57610c2f610bc5565b81604052838152866020858801011115610c4857600080fd5b836020870160208301376000602085830101528094505050505092915050565b600060208284031215610c7a57600080fd5b813567ffffffffffffffff811115610c9157600080fd5b610c9d84828501610bdb565b949350505050565b60005b83811015610cc0578181015183820152602001610ca8565b50506000910152565b6020815260008251806020840152610ce8816040850160208701610ca5565b601f01601f19169190910160400192915050565b80356001600160a01b0381168114610d1357600080fd5b919050565b60008060408385031215610d2b57600080fd5b610d3483610cfc565b946020939093013593505050565b600080600060608486031215610d5757600080fd5b610d6084610cfc565b9250610d6e60208501610cfc565b9150604084013590509250925092565b60008060408385031215610d9157600080fd5b823567ffffffffffffffff811115610da857600080fd5b610db485828601610bdb565b925050610dc360208401610cfc565b90509250929050565b600080600060608486031215610de157600080fd5b833567ffffffffffffffff811115610df857600080fd5b610e0486828701610bdb565b935050610d6e60208501610cfc565b600060208284031215610e2557600080fd5b610e2e82610cfc565b9392505050565b60008060408385031215610e4857600080fd5b610e5183610cfc565b9150610dc360208401610cfc565b60008251610e71818460208701610ca5565b9190910192915050565b600181811c90821680610e8f57607f821691505b602082108103610eaf57634e487b7160e01b600052602260045260246000fd5b50919050565b601f82111561083157600081815260208120601f850160051c81016020861015610edc5750805b601f850160051c820191505b81811015610efb57828155600101610ee8565b505050505050565b815167ffffffffffffffff811115610f1d57610f1d610bc5565b610f3181610f2b8454610e7b565b84610eb5565b602080601f831160018114610f665760008415610f4e5750858301515b600019600386901b1c1916600185901b178555610efb565b600085815260208120601f198616915b82811015610f9557888601518255948401946001909101908401610f76565b5085821015610fb35787850151600019600388901b60f8161c191681555b5050505050600190811b01905550565b634e487b7160e01b600052601160045260246000fd5b6001600160a01b03828116828216039080821115610ff957610ff9610fc3565b5092915050565b8082018082111561047f5761047f610fc356fea2646970667358221220f4895cb58c33bc42339b492b1f67f399ad8471fd2e3cea17c89e0495dbd7813064736f6c63430008140033",
  "linkReferences": {},
  "deployedLinkReferences": {}
}