{
  "_format": "hh-sol-artifact-1",
  "contractName": "Stake",
  "sourceName": "contracts/stake/Stake.sol",
  "abi": [
    {
      "inputs": [
        {
          "internalType": "address",
          "name": "_token",
          "type": "address"
        }
      ],
      "stateMutability": "nonpayable",
      "type": "constructor"
    },
    {
      "inputs": [
        {
          "internalType": "address",
          "name": "owner",
          "type": "address"
        }
      ],
      "name": "OwnableInvalidOwner",
      "type": "error"
    },
    {
      "inputs": [
        {
          "internalType": "address",
          "name": "account",
          "type": "address"
        }
      ],
      "name": "OwnableUnauthorizedAccount",
      "type": "error"
    },
    {
      "inputs": [],
      "name": "ReentrancyGuardReentrantCall",
      "type": "error"
    },
    {
      "anonymous": false,
      "inputs": [
        {
          "indexed": true,
          "internalType": "address",
          "name": "user",
          "type": "address"
        },
        {
          "indexed": true,
          "internalType": "uint256",
          "name": "amount",
          "type": "uint256"
        },
        {
          "indexed": true,
          "internalType": "string",
          "name": "action",
          "type": "string"
        }
      ],
      "name": "DepositWithdraw",
      "type": "event"
    },
    {
      "anonymous": false,
      "inputs": [
        {
          "indexed": true,
          "internalType": "address",
          "name": "user",
          "type": "address"
        },
        {
          "indexed": true,
          "internalType": "uint256",
          "name": "amount",
          "type": "uint256"
        },
        {
          "indexed": true,
          "internalType": "uint256",
          "name": "serialNo",
          "type": "uint256"
        }
      ],
      "name": "LockedTokens",
      "type": "event"
    },
    {
      "anonymous": false,
      "inputs": [
        {
          "indexed": true,
          "internalType": "address",
          "name": "previousOwner",
          "type": "address"
        },
        {
          "indexed": true,
          "internalType": "address",
          "name": "newOwner",
          "type": "address"
        }
      ],
      "name": "OwnershipTransferred",
      "type": "event"
    },
    {
      "anonymous": false,
      "inputs": [
        {
          "indexed": false,
          "internalType": "uint256",
          "name": "saleId",
          "type": "uint256"
        },
        {
          "indexed": true,
          "internalType": "string",
          "name": "name",
          "type": "string"
        },
        {
          "indexed": true,
          "internalType": "uint256",
          "name": "startAt",
          "type": "uint256"
        }
      ],
      "name": "SaleInfo",
      "type": "event"
    },
    {
      "anonymous": false,
      "inputs": [
        {
          "indexed": true,
          "internalType": "uint8",
          "name": "percentage",
          "type": "uint8"
        },
        {
          "indexed": true,
          "internalType": "address",
          "name": "changedBy",
          "type": "address"
        }
      ],
      "name": "StakePercentage",
      "type": "event"
    },
    {
      "anonymous": false,
      "inputs": [
        {
          "indexed": true,
          "internalType": "address",
          "name": "user",
          "type": "address"
        },
        {
          "indexed": true,
          "internalType": "uint256",
          "name": "amount",
          "type": "uint256"
        },
        {
          "indexed": true,
          "internalType": "uint256",
          "name": "serialNo",
          "type": "uint256"
        }
      ],
      "name": "StakedTokens",
      "type": "event"
    },
    {
      "anonymous": false,
      "inputs": [
        {
          "indexed": true,
          "internalType": "address",
          "name": "user",
          "type": "address"
        },
        {
          "indexed": true,
          "internalType": "string",
          "name": "role",
          "type": "string"
        }
      ],
      "name": "WhitelistTeamFriends",
      "type": "event"
    },
    {
      "inputs": [
        {
          "internalType": "uint256",
          "name": "_count",
          "type": "uint256"
        },
        {
          "internalType": "string",
          "name": "_saleName",
          "type": "string"
        },
        {
          "internalType": "uint256",
          "name": "_supply",
          "type": "uint256"
        },
        {
          "internalType": "address",
          "name": "_walletAddress",
          "type": "address"
        },
        {
          "internalType": "uint256",
          "name": "_currentTime",
          "type": "uint256"
        }
      ],
      "name": "_addSale",
      "outputs": [],
      "stateMutability": "nonpayable",
      "type": "function"
    },
    {
      "inputs": [
        {
          "internalType": "string",
          "name": "a",
          "type": "string"
        },
        {
          "internalType": "string",
          "name": "b",
          "type": "string"
        }
      ],
      "name": "_compareEqual",
      "outputs": [
        {
          "internalType": "bool",
          "name": "",
          "type": "bool"
        }
      ],
      "stateMutability": "pure",
      "type": "function"
    },
    {
      "inputs": [],
      "name": "_defaultSale",
      "outputs": [],
      "stateMutability": "nonpayable",
      "type": "function"
    },
    {
      "inputs": [
        {
          "internalType": "address",
          "name": "_user",
          "type": "address"
        },
        {
          "internalType": "uint160",
          "name": "_amount",
          "type": "uint160"
        }
      ],
      "name": "_deposti",
      "outputs": [],
      "stateMutability": "nonpayable",
      "type": "function"
    },
    {
      "inputs": [
        {
          "internalType": "uint256",
          "name": "m",
          "type": "uint256"
        },
        {
          "internalType": "uint256",
          "name": "currentTime",
          "type": "uint256"
        },
        {
          "components": [
            {
              "internalType": "uint160",
              "name": "stakeAmount",
              "type": "uint160"
            },
            {
              "internalType": "uint160",
              "name": "unStakedAmount",
              "type": "uint160"
            },
            {
              "internalType": "uint256",
              "name": "stakedAt",
              "type": "uint256"
            },
            {
              "internalType": "bool",
              "name": "isUnstaked",
              "type": "bool"
            }
          ],
          "internalType": "struct Stake.Staking",
          "name": "userStaking",
          "type": "tuple"
        }
      ],
      "name": "_getMaturedStakeAmt",
      "outputs": [
        {
          "internalType": "uint256",
          "name": "",
          "type": "uint256"
        }
      ],
      "stateMutability": "pure",
      "type": "function"
    },
    {
      "inputs": [
        {
          "internalType": "address",
          "name": "_from",
          "type": "address"
        },
        {
          "internalType": "address",
          "name": "_to",
          "type": "address"
        },
        {
          "internalType": "uint120",
          "name": "_amount",
          "type": "uint120"
        },
        {
          "internalType": "uint256",
          "name": "_currentTime",
          "type": "uint256"
        }
      ],
      "name": "_lockTokens",
      "outputs": [
        {
          "internalType": "bool",
          "name": "",
          "type": "bool"
        }
      ],
      "stateMutability": "nonpayable",
      "type": "function"
    },
    {
      "inputs": [
        {
          "internalType": "address",
          "name": "_from",
          "type": "address"
        },
        {
          "internalType": "address",
          "name": "_to",
          "type": "address"
        },
        {
          "internalType": "uint120",
          "name": "_amount",
          "type": "uint120"
        },
        {
          "internalType": "uint256",
          "name": "_currentTime",
          "type": "uint256"
        }
      ],
      "name": "_stakeTokens",
      "outputs": [
        {
          "internalType": "bool",
          "name": "",
          "type": "bool"
        }
      ],
      "stateMutability": "nonpayable",
      "type": "function"
    },
    {
      "inputs": [
        {
          "internalType": "address",
          "name": "_user",
          "type": "address"
        },
        {
          "internalType": "uint256",
          "name": "_currentTime",
          "type": "uint256"
        }
      ],
      "name": "_unLockTokens",
      "outputs": [
        {
          "internalType": "bool",
          "name": "",
          "type": "bool"
        }
      ],
      "stateMutability": "nonpayable",
      "type": "function"
    },
    {
      "inputs": [
        {
          "internalType": "address",
          "name": "_user",
          "type": "address"
        },
        {
          "internalType": "uint256",
          "name": "_currentTime",
          "type": "uint256"
        }
      ],
      "name": "_unStakeTokens",
      "outputs": [
        {
          "internalType": "bool",
          "name": "",
          "type": "bool"
        }
      ],
      "stateMutability": "nonpayable",
      "type": "function"
    },
    {
      "inputs": [
        {
          "internalType": "address",
          "name": "_user",
          "type": "address"
        },
        {
          "internalType": "uint160",
          "name": "_amount",
          "type": "uint160"
        },
        {
          "internalType": "string",
          "name": "_action",
          "type": "string"
        }
      ],
      "name": "_updateTokenBalance",
      "outputs": [],
      "stateMutability": "nonpayable",
      "type": "function"
    },
    {
      "inputs": [
        {
          "internalType": "uint256",
          "name": "_m",
          "type": "uint256"
        },
        {
          "internalType": "uint256",
          "name": "_currentTime",
          "type": "uint256"
        },
        {
          "components": [
            {
              "internalType": "uint160",
              "name": "depositAmount",
              "type": "uint160"
            },
            {
              "internalType": "uint160",
              "name": "withdrawAmount",
              "type": "uint160"
            },
            {
              "internalType": "uint256",
              "name": "depositedAt",
              "type": "uint256"
            },
            {
              "internalType": "string",
              "name": "sale",
              "type": "string"
            },
            {
              "internalType": "bool",
              "name": "isMatured",
              "type": "bool"
            }
          ],
          "internalType": "struct Stake.Deposit",
          "name": "_userDeposit",
          "type": "tuple"
        }
      ],
      "name": "_vesting",
      "outputs": [
        {
          "internalType": "uint256",
          "name": "",
          "type": "uint256"
        },
        {
          "internalType": "bool",
          "name": "",
          "type": "bool"
        }
      ],
      "stateMutability": "pure",
      "type": "function"
    },
    {
      "inputs": [
        {
          "internalType": "uint8",
          "name": "percentage",
          "type": "uint8"
        }
      ],
      "name": "changeStakePercentage",
      "outputs": [],
      "stateMutability": "nonpayable",
      "type": "function"
    },
    {
      "inputs": [
        {
          "internalType": "address",
          "name": "user",
          "type": "address"
        },
        {
          "internalType": "uint160",
          "name": "tokenAmount",
          "type": "uint160"
        }
      ],
      "name": "deposit",
      "outputs": [
        {
          "internalType": "bool",
          "name": "",
          "type": "bool"
        }
      ],
      "stateMutability": "nonpayable",
      "type": "function"
    },
    {
      "inputs": [
        {
          "internalType": "address",
          "name": "",
          "type": "address"
        },
        {
          "internalType": "uint256",
          "name": "",
          "type": "uint256"
        }
      ],
      "name": "deposits",
      "outputs": [
        {
          "internalType": "uint160",
          "name": "depositAmount",
          "type": "uint160"
        },
        {
          "internalType": "uint160",
          "name": "withdrawAmount",
          "type": "uint160"
        },
        {
          "internalType": "uint256",
          "name": "depositedAt",
          "type": "uint256"
        },
        {
          "internalType": "string",
          "name": "sale",
          "type": "string"
        },
        {
          "internalType": "bool",
          "name": "isMatured",
          "type": "bool"
        }
      ],
      "stateMutability": "view",
      "type": "function"
    },
    {
      "inputs": [],
      "name": "getLatestMintedSale",
      "outputs": [
        {
          "internalType": "string",
          "name": "",
          "type": "string"
        },
        {
          "internalType": "uint256",
          "name": "",
          "type": "uint256"
        },
        {
          "internalType": "address",
          "name": "",
          "type": "address"
        }
      ],
      "stateMutability": "view",
      "type": "function"
    },
    {
      "inputs": [],
      "name": "getLatestSaleCount",
      "outputs": [
        {
          "internalType": "uint256",
          "name": "",
          "type": "uint256"
        }
      ],
      "stateMutability": "view",
      "type": "function"
    },
    {
      "inputs": [
        {
          "internalType": "address",
          "name": "user",
          "type": "address"
        }
      ],
      "name": "getLeftBalance",
      "outputs": [
        {
          "internalType": "uint256",
          "name": "",
          "type": "uint256"
        }
      ],
      "stateMutability": "view",
      "type": "function"
    },
    {
      "inputs": [
        {
          "internalType": "address",
          "name": "user",
          "type": "address"
        }
      ],
      "name": "getMaturedStakedAmt",
      "outputs": [
        {
          "internalType": "uint256",
          "name": "",
          "type": "uint256"
        }
      ],
      "stateMutability": "view",
      "type": "function"
    },
    {
      "inputs": [
        {
          "internalType": "address",
          "name": "",
          "type": "address"
        },
        {
          "internalType": "uint256",
          "name": "",
          "type": "uint256"
        }
      ],
      "name": "lockings",
      "outputs": [
        {
          "internalType": "uint120",
          "name": "lockedAmount",
          "type": "uint120"
        },
        {
          "internalType": "uint256",
          "name": "lockedAt",
          "type": "uint256"
        },
        {
          "internalType": "uint256",
          "name": "unLockedAt",
          "type": "uint256"
        },
        {
          "internalType": "bool",
          "name": "isUnlocked",
          "type": "bool"
        }
      ],
      "stateMutability": "view",
      "type": "function"
    },
    {
      "inputs": [
        {
          "internalType": "uint256",
          "name": "value",
          "type": "uint256"
        },
        {
          "internalType": "uint256",
          "name": "percentage",
          "type": "uint256"
        },
        {
          "internalType": "uint256",
          "name": "denominator",
          "type": "uint256"
        }
      ],
      "name": "mulDiv",
      "outputs": [
        {
          "internalType": "uint256",
          "name": "",
          "type": "uint256"
        }
      ],
      "stateMutability": "pure",
      "type": "function"
    },
    {
      "inputs": [],
      "name": "owner",
      "outputs": [
        {
          "internalType": "address",
          "name": "",
          "type": "address"
        }
      ],
      "stateMutability": "view",
      "type": "function"
    },
    {
      "inputs": [],
      "name": "renounceOwnership",
      "outputs": [],
      "stateMutability": "nonpayable",
      "type": "function"
    },
    {
      "inputs": [],
      "name": "saleCounter",
      "outputs": [
        {
          "internalType": "uint256",
          "name": "",
          "type": "uint256"
        }
      ],
      "stateMutability": "view",
      "type": "function"
    },
    {
      "inputs": [
        {
          "internalType": "string",
          "name": "",
          "type": "string"
        }
      ],
      "name": "saleId",
      "outputs": [
        {
          "internalType": "uint256",
          "name": "",
          "type": "uint256"
        }
      ],
      "stateMutability": "view",
      "type": "function"
    },
    {
      "inputs": [
        {
          "internalType": "uint256",
          "name": "",
          "type": "uint256"
        }
      ],
      "name": "saleInfo",
      "outputs": [
        {
          "internalType": "string",
          "name": "name",
          "type": "string"
        },
        {
          "internalType": "uint160",
          "name": "supply",
          "type": "uint160"
        },
        {
          "internalType": "address",
          "name": "walletAddress",
          "type": "address"
        },
        {
          "internalType": "uint256",
          "name": "startAt",
          "type": "uint256"
        }
      ],
      "stateMutability": "view",
      "type": "function"
    },
    {
      "inputs": [
        {
          "internalType": "address",
          "name": "to",
          "type": "address"
        },
        {
          "internalType": "uint120",
          "name": "tokenAmount",
          "type": "uint120"
        },
        {
          "internalType": "string",
          "name": "stakeOrLockType",
          "type": "string"
        }
      ],
      "name": "stakeOrLockTokens",
      "outputs": [
        {
          "internalType": "bool",
          "name": "",
          "type": "bool"
        }
      ],
      "stateMutability": "nonpayable",
      "type": "function"
    },
    {
      "inputs": [],
      "name": "stakingPercentage",
      "outputs": [
        {
          "internalType": "uint8",
          "name": "",
          "type": "uint8"
        }
      ],
      "stateMutability": "view",
      "type": "function"
    },
    {
      "inputs": [
        {
          "internalType": "address",
          "name": "",
          "type": "address"
        },
        {
          "internalType": "uint256",
          "name": "",
          "type": "uint256"
        }
      ],
      "name": "stakings",
      "outputs": [
        {
          "internalType": "uint160",
          "name": "stakeAmount",
          "type": "uint160"
        },
        {
          "internalType": "uint160",
          "name": "unStakedAmount",
          "type": "uint160"
        },
        {
          "internalType": "uint256",
          "name": "stakedAt",
          "type": "uint256"
        },
        {
          "internalType": "bool",
          "name": "isUnstaked",
          "type": "bool"
        }
      ],
      "stateMutability": "view",
      "type": "function"
    },
    {
      "inputs": [],
      "name": "startSale",
      "outputs": [],
      "stateMutability": "nonpayable",
      "type": "function"
    },
    {
      "inputs": [],
      "name": "token",
      "outputs": [
        {
          "internalType": "contract IAnryton",
          "name": "",
          "type": "address"
        }
      ],
      "stateMutability": "view",
      "type": "function"
    },
    {
      "inputs": [
        {
          "internalType": "address",
          "name": "newOwner",
          "type": "address"
        }
      ],
      "name": "transferOwnership",
      "outputs": [],
      "stateMutability": "nonpayable",
      "type": "function"
    },
    {
      "inputs": [
        {
          "internalType": "string",
          "name": "stakeOrLock",
          "type": "string"
        }
      ],
      "name": "unStakeOrUnLock",
      "outputs": [
        {
          "internalType": "bool",
          "name": "",
          "type": "bool"
        }
      ],
      "stateMutability": "nonpayable",
      "type": "function"
    },
    {
      "inputs": [
        {
          "internalType": "address",
          "name": "",
          "type": "address"
        }
      ],
      "name": "users",
      "outputs": [
        {
          "internalType": "uint160",
          "name": "tokenBalance",
          "type": "uint160"
        },
        {
          "internalType": "uint128",
          "name": "stakedTokens",
          "type": "uint128"
        },
        {
          "internalType": "uint160",
          "name": "withdrawTokens",
          "type": "uint160"
        },
        {
          "internalType": "uint128",
          "name": "lockedTokens",
          "type": "uint128"
        },
        {
          "internalType": "uint48",
          "name": "totalStakes",
          "type": "uint48"
        },
        {
          "internalType": "uint48",
          "name": "totalLocks",
          "type": "uint48"
        },
        {
          "internalType": "uint48",
          "name": "totalDeposits",
          "type": "uint48"
        }
      ],
      "stateMutability": "view",
      "type": "function"
    },
    {
      "inputs": [
        {
          "internalType": "address",
          "name": "user",
          "type": "address"
        }
      ],
      "name": "vesting",
      "outputs": [
        {
          "internalType": "uint256",
          "name": "",
          "type": "uint256"
        }
      ],
      "stateMutability": "view",
      "type": "function"
    },
    {
      "inputs": [],
      "name": "withdraw",
      "outputs": [
        {
          "internalType": "bool",
          "name": "",
          "type": "bool"
        }
      ],
      "stateMutability": "nonpayable",
      "type": "function"
    }
  ],
  "bytecode": "0x60a060405260006001556005805460ff191660641790553480156200002357600080fd5b506040516200378a3803806200378a833981016040819052620000469162000371565b8033806200006f57604051631e4fbdf760e01b8152600060048201526024015b60405180910390fd5b6200007a816200009f565b506001600160a01b03811660805262000092620000ef565b505060016004556200068f565b600080546001600160a01b038381166001600160a01b0319831681178455604051919092169283917f8be0079c531659141344cd1fd0a4f28419497f9722a3daafe3b4186f6b6457e09190a35050565b620000f9620000fb565b565b620001056200014f565b600042905060006001600081546200011d9062000396565b9182905550905060008080620001326200017e565b9194509250905062000148848484848962000277565b5050505050565b6000546001600160a01b03163314620000f95760405163118cdaa760e01b815233600482015260240162000066565b606060008060006080516001600160a01b031663944df0456040518163ffffffff1660e01b8152600401600060405180830381865afa158015620001c6573d6000803e3d6000fd5b505050506040513d6000823e601f3d908101601f19168201604052620001f09190810190620003fa565b90506000806080516001600160a01b031663060a9aeb846040518263ffffffff1660e01b8152600401620002259190620004b2565b6040805180830381865afa15801562000242573d6000803e3d6000fd5b505050506040513d601f19601f82011682018060405250810190620002689190620004e7565b93979096509294509192505050565b6000858152600360205260409020620002918582620005a5565b506000858152600360208190526040918290206001810180546001600160a01b038089166001600160a01b031992831617909255600280840180549389169390921692909217905591018390559051869190620002f090879062000671565b908152602001604051809103902081905550808460405162000313919062000671565b604051908190038120878252907f0c19bb44b59579be200a2b8014813f052e8d673471778b18db3aae536dce7ba59060200160405180910390a35050505050565b80516001600160a01b03811681146200036c57600080fd5b919050565b6000602082840312156200038457600080fd5b6200038f8262000354565b9392505050565b600060018201620003b757634e487b7160e01b600052601160045260246000fd5b5060010190565b634e487b7160e01b600052604160045260246000fd5b60005b83811015620003f1578181015183820152602001620003d7565b50506000910152565b6000602082840312156200040d57600080fd5b81516001600160401b03808211156200042557600080fd5b818401915084601f8301126200043a57600080fd5b8151818111156200044f576200044f620003be565b604051601f8201601f19908116603f011681019083821181831017156200047a576200047a620003be565b816040528281528760208487010111156200049457600080fd5b620004a7836020830160208801620003d4565b979650505050505050565b6020815260008251806020840152620004d3816040850160208701620003d4565b601f01601f19169190910160400192915050565b60008060408385031215620004fb57600080fd5b825191506200050d6020840162000354565b90509250929050565b600181811c908216806200052b57607f821691505b6020821081036200054c57634e487b7160e01b600052602260045260246000fd5b50919050565b601f821115620005a057600081815260208120601f850160051c810160208610156200057b5750805b601f850160051c820191505b818110156200059c5782815560010162000587565b5050505b505050565b81516001600160401b03811115620005c157620005c1620003be565b620005d981620005d2845462000516565b8462000552565b602080601f831160018114620006115760008415620005f85750858301515b600019600386901b1c1916600185901b1785556200059c565b600085815260208120601f198616915b82811015620006425788860151825594840194600190910190840162000621565b5085821015620006615787850151600019600388901b60f8161c191681555b5050505050600190811b01905550565b6000825162000685818460208701620003d4565b9190910192915050565b6080516130a7620006e360003960008181610685015281816107c601528181610b9801528181610da20152818161191f015281816119a301528181611a2e01528181611bcf01526121c901526130a76000f3fe608060405234801561001057600080fd5b50600436106102115760003560e01c80638f38f3f311610125578063d6d68177116100ad578063ec5b9b171161007c578063ec5b9b171461063f578063f0509d4014610652578063f2fde38b14610665578063f64dc6b114610678578063fc0c546a1461068057600080fd5b8063d6d68177146105e2578063d92ff64314610606578063e388c42314610619578063ec0832701461062c57600080fd5b8063aa9a0912116100f4578063aa9a09121461058a578063b66a0e5d1461059d578063b7867981146105a5578063c5dc51d4146105b8578063c82f0b23146105cf57600080fd5b80638f38f3f31461048257806396d886991461049757806398f36ca7146104aa578063a87430ba146104bd57600080fd5b806340150877116101a8578063715018a611610177578063715018a61461041957806381e1ccba146104235780638734c045146104425780638ce902f2146104555780638da5cb5b1461045d57600080fd5b806340150877146103b857806354f9eede146103cb5780635ac9a40d146103de57806370a20d69146103f157600080fd5b80631849d8ea116101e45780631849d8ea146102f5578063210d4b23146103725780632c7283c3146103855780633ccfd60b146103b057600080fd5b806302eb4b88146102165780630387b0a21461024257806303fde255146102595780630ee141c21461027c575b600080fd5b610229610224366004612529565b6106a7565b6040516102399493929190612592565b60405180910390f35b61024b60015481565b604051908152602001610239565b61026c6102673660046125dd565b610764565b6040519015158152602001610239565b6102c961028a366004612616565b600860209081526000928352604080842090915290825290208054600182015460028301546003909301546001600160781b0390921692909160ff1684565b604080516001600160781b03909516855260208501939093529183015215156060820152608001610239565b610345610303366004612616565b600760209081526000928352604080842090915290825290208054600182015460028301546003909301546001600160a01b0392831693919092169160ff1684565b604080516001600160a01b0395861681529490931660208501529183015215156060820152608001610239565b61024b6103803660046126c0565b610848565b61024b6103933660046127e4565b805160208183018101805160028252928201919093012091525481565b61026c6108a3565b61026c6103c6366004612616565b610c16565b61024b6103d9366004612819565b610ded565b61026c6103ec366004612854565b610eb7565b6104046103ff3660046128b4565b6110c0565b60408051928352901515602083015201610239565b61042161141d565b005b6005546104309060ff1681565b60405160ff9091168152602001610239565b61026c6104503660046127e4565b611431565b60015461024b565b6000546001600160a01b03165b6040516001600160a01b039091168152602001610239565b61026c61049036600461297c565b5190511490565b6104216104a53660046129e0565b61152b565b6104216104b8366004612a10565b611711565b6105306104cb366004612819565b600660205260009081526040902080546001820154600283015460038401546004909401546001600160a01b03938416946001600160801b0393841694929092169282169165ffffffffffff600160801b8204811692600160b01b9092048116911687565b604080516001600160a01b0398891681526001600160801b039788166020820152979095169487019490945293909116606085015265ffffffffffff908116608085015291821660a08401521660c082015260e001610239565b61024b610598366004612a33565b61177f565b610421611796565b61026c6105b3366004612a5f565b6117e1565b6105c061199a565b60405161023993929190612aae565b61026c6105dd366004612a5f565b611ac7565b6105f56105f0366004612616565b611c00565b604051610239959493929190612ae1565b610421610614366004612b28565b611cd3565b61024b610627366004612819565b611daa565b61026c61063a366004612616565b611f66565b61042161064d3660046125dd565b612242565b61024b610660366004612819565b612308565b610421610673366004612819565b61243c565b61042161247a565b61046a7f000000000000000000000000000000000000000000000000000000000000000081565b6003602052600090815260409020805481906106c290612b93565b80601f01602080910402602001604051908101604052809291908181526020018280546106ee90612b93565b801561073b5780601f106107105761010080835404028352916020019161073b565b820191906000526020600020905b81548152906001019060200180831161071e57829003601f168201915b505050506001830154600284015460039094015492936001600160a01b03918216939116915084565b600061076e612482565b61079883836040518060400160405280600781526020016611115413d4d25560ca1b81525061152b565b6040516323b872dd60e01b81523360048201523060248201526001600160a01b0383811660448301526000917f0000000000000000000000000000000000000000000000000000000000000000909116906323b872dd906064016020604051808303816000875af1158015610811573d6000803e3d6000fd5b505050506040513d601f19601f820116820180604052508101906108359190612bcd565b9150506108426001600455565b92915050565b60008080610857866005612c00565b84604001516108669190612c17565b90508085111561089a57835160009061088190600690612c40565b6001600160a01b031690506108968184612c17565b9250505b50949350505050565b600042818060075b60248111610ad757600060015b3360009081526006602052604090206004015465ffffffffffff168111610ab9573360009081526009602090815260408083208484528252808320815160a08101835281546001600160a01b0390811682526001830154169381019390935260028101549183019190915260038101805460608401919061093890612b93565b80601f016020809104026020016040519081016040528092919081815260200182805461096490612b93565b80156109b15780601f10610986576101008083540402835291602001916109b1565b820191906000526020600020905b81548152906001019060200180831161099457829003601f168201915b50505091835250506004919091015460ff1615156020909101526080810151909150610aa6576000806109e5868a856110c0565b90925090508115610aa3576109fa8289612c17565b975082602001516001600160a01b031685610a159190612c17565b336000908152600960209081526040808320888452909152812060010180549297508492909190610a509084906001600160a01b0316612c66565b92506101000a8154816001600160a01b0302191690836001600160a01b031602179055508015610aa3573360009081526009602090815260408083208784529091529020600401805460ff191660011790555b50505b5080610ab181612c8d565b9150506108b8565b508015610ac4578092505b5080610acf81612c8d565b9150506108ab565b50610ae28183612ca6565b915060008211610b4e5760405162461bcd60e51b815260206004820152602c60248201527f5354414b453a3a207468657265206973206e6f2066756e647320746f2062652060448201526b3a3930b739b332b93932b21760a11b60648201526084015b60405180910390fd5b610b79338360405180604001604052806008815260200167574954484452415760c01b81525061152b565b60405163a9059cbb60e01b8152336004820152602481018390526000907f00000000000000000000000000000000000000000000000000000000000000006001600160a01b03169063a9059cbb906044016020604051808303816000875af1158015610be9573d6000803e3d6000fd5b505050506040513d601f19601f82011682018060405250810190610c0d9190612bcd565b95945050505050565b60008060015b6001600160a01b038516600090815260066020526040902060030154600160b01b900465ffffffffffff168111610d1357336000908152600860209081526040808320848452825291829020825160808101845281546001600160781b0316815260018201549281019290925260028101549282019290925260039091015460ff16151560608201819052610d00578060400151851115610d00578051610ccc906001600160781b031684612c17565b6001600160a01b03871660009081526008602090815260408083208684529091529020600301805460ff1916600117905592505b5080610d0b81612c8d565b915050610c1c565b5080600003610d795760405162461bcd60e51b815260206004820152602c60248201527f5354414b453a207468657265206973206e6f20616d6f756e7420746f2062652060448201526b3a3930b739b332b93932b21760a11b6064820152608401610b45565b60405163a9059cbb60e01b81526001600160a01b038581166004830152602482018390526000917f00000000000000000000000000000000000000000000000000000000000000009091169063a9059cbb906044016020604051808303816000875af1158015610be9573d6000803e3d6000fd5b6001600160a01b038082166000908152600660209081526040808320815160e08101835281548616815260018201546001600160801b0390811694820185905260028301549096169281019290925260038101549485166060830181905265ffffffffffff600160801b870481166080850152600160b01b909604861660a084015260049091015490941660c082015291928391610e8b9190612cb9565b6001600160801b031690508082600001516001600160a01b0316610eaf9190612ca6565b949350505050565b6000826001600160781b031660008111610ee35760405162461bcd60e51b8152600401610b4590612cd9565b846001600160a01b038116610f0a5760405162461bcd60e51b8152600401610b4590612d24565b610f12612482565b6000429050610f4085604051806040016040528060058152602001645354414b4560d81b8152505190511490565b15610fba576001600160a01b038716600090815260066020526040812060010180546001600160781b0389169290610f829084906001600160801b0316612cb9565b92506101000a8154816001600160801b0302191690836001600160801b03160217905550610fb233888884611ac7565b9350506110ad565b610fe285604051806040016040528060048152602001634c4f434b60e01b8152505190511490565b15611054576001600160a01b038716600090815260066020526040812060030180546001600160781b03891692906110249084906001600160801b0316612cb9565b92506101000a8154816001600160801b0302191690836001600160801b03160217905550610fb2338888846117e1565b60405162461bcd60e51b815260206004820152602860248201527f5354414b453a3a20747970652073686f756c6420626520274c4f434b27206f7260448201526720275354414b452760c01b6064820152608401610b45565b6110b76001600455565b50509392505050565b60008060008060008760070361114e5761110386606001516040518060400160405280600b81526020016a5055424c49435f53414c4560a81b8152505190511490565b1561114e5760008660400151600461111b9190612c17565b90508088111561114c57865161113d906001600160a01b03166014606461177f565b92506111498385612c17565b93505b505b600061115b896005612c00565b876040015161116a9190612c17565b90508088111561140e5782876000018181516111869190612d74565b6001600160a01b0316905250606087015160408051808201909152600d81526c11905352531657d19492515391609a1b60208201526000916111c9915190511490565b80611203575061120388606001516040518060400160405280600c81526020016b505249564154455f53414c4560a01b8152505190511490565b8061123c575061123c88606001516040518060400160405280600b81526020016a5055424c49435f53414c4560a81b8152505190511490565b15611289578960120361124e57600192505b60078a10158015611260575060128a11155b1561128957875161127390600c90612c40565b611286906001600160a01b031682612c17565b90505b6112b58860600151604051806040016040528060048152602001635445414d60e01b8152505190511490565b806112eb57506112eb88606001516040518060400160405280600881526020016741445649534f525360c01b8152505190511490565b1561133857896024036112fd57600192505b600d8a1015801561130f575060248a11155b1561133857875161132290601890612c40565b611335906001600160a01b031682612c17565b90505b611368886060015160405180604001604052806008815260200167524553455256455360c01b8152505190511490565b806113b357506113b388606001516040518060400160405280601a81526020017f53544f524147455f4d494e54494e475f414c4c4f434154494f4e0000000000008152505190511490565b1561140057896024036113c557600192505b60198a101580156113d7575060248a11155b156114005787516113ea90600c90612c40565b6113fd906001600160a01b031682612c17565b90505b61140a8186612c17565b9450505b50919791965090945050505050565b6114256124ac565b61142f60006124d9565b565b600061143b612482565b600042905061146c8360405180604001604052806008815260200167554e5f5354414b4560c01b8152505190511490565b156114835761147b3382611f66565b91505061151c565b6114ae8360405180604001604052806007815260200166554e5f4c4f434b60c81b8152505190511490565b156114bd5761147b3382610c16565b60405162461bcd60e51b815260206004820152602e60248201527f5354414b453a3a20747970652073686f756c642062652027554e5f4c4f434b2760448201526d206f722027554e5f5354414b452760901b6064820152608401610b45565b6115266001600455565b919050565b816001600160a01b0316600081116115555760405162461bcd60e51b8152600401610b4590612cd9565b836001600160a01b03811661157c5760405162461bcd60e51b8152600401610b4590612d24565b6001600160a01b0385811660009081526006602090815260409182902054825180840190935260078084526611115413d4d25560ca1b939092019290925285519190921691036115ea576115d96001600160a01b03861682612c17565b90506115e58686612242565b611684565b6116168460405180604001604052806008815260200167574954484452415760c01b8152505190511490565b156116845761162e6001600160a01b03861682612ca6565b6001600160a01b03808816600090815260066020526040812060020180549394508893909261165f91859116612c66565b92506101000a8154816001600160a01b0302191690836001600160a01b031602179055505b6001600160a01b038681166000908152600660205260409081902080546001600160a01b03191692841692909217909155516116c1908590612d94565b6040518091039020856001600160a01b0316876001600160a01b03167f580b799b7daf8b70733791ba3fc6accbe6aec46f721af6c7a7f076e044d9c25560405160405180910390a4505050505050565b8060ff16600081116117355760405162461bcd60e51b8152600401610b4590612cd9565b61173d6124ac565b6005805460ff191660ff84169081179091556040513391907fc33d7f95e5c54d034e8457f6c4cd07fe2d3402a6ae284ad891a2406f9d6e13a690600090a35050565b60008161178c8486612c00565b610eaf9190612db0565b61179e6124ac565b600042905060006001600081546117b490612c8d565b91829055509050600080806117c761199a565b9250925092506117da8484848489611cd3565b5050505050565b336000908152600660205260408120600301805482919060169061181390600160b01b900465ffffffffffff16612dc4565b825465ffffffffffff8083166101009490940a848102910219909116179092556001600160a01b0387166000908152600860209081526040808320938352929052206001018490559050611868836002612c17565b6001600160a01b038616600081815260086020908152604080832065ffffffffffff87168085529252808320600281019590955584546effffffffffffffffffffffffffffff19166001600160781b038a1690811790955551909392917f96480d0485518da027da30c099c5ed78006afe441dbb13b237bbc485bfa886c091a46040516323b872dd60e01b81526001600160a01b0387811660048301523060248301526001600160781b03861660448301526000917f0000000000000000000000000000000000000000000000000000000000000000909116906323b872dd906064015b6020604051808303816000875af115801561196b573d6000803e3d6000fd5b505050506040513d601f19601f8201168201806040525081019061198f9190612bcd565b979650505050505050565b606060008060007f00000000000000000000000000000000000000000000000000000000000000006001600160a01b031663944df0456040518163ffffffff1660e01b8152600401600060405180830381865afa1580156119ff573d6000803e3d6000fd5b505050506040513d6000823e601f3d908101601f19168201604052611a279190810190612de9565b90506000807f00000000000000000000000000000000000000000000000000000000000000006001600160a01b031663060a9aeb846040518263ffffffff1660e01b8152600401611a789190612e57565b6040805180830381865afa158015611a94573d6000803e3d6000fd5b505050506040513d601f19601f82011682018060405250810190611ab89190612e6a565b93979096509294509192505050565b6001600160a01b03831660009081526006602052604081206003018054829190601090611b0290600160801b900465ffffffffffff16612dc4565b825465ffffffffffff8083166101009490940a848102910219909116179092556001600160a01b0387166000818152600760209081526040808320858452808352818420600281018b9055868552925281546001600160a01b0319166001600160781b038b169081179092555194955092937fb7ae71bd615e1d1e5d496e36876dd8e9dd2842ba7f262d351041ceb43eae40cf9190a46040516323b872dd60e01b81526001600160a01b0387811660048301523060248301526001600160781b03861660448301526000917f0000000000000000000000000000000000000000000000000000000000000000909116906323b872dd9060640161194c565b600960209081526000928352604080842090915290825290208054600182015460028301546003840180546001600160a01b039485169594909316939192611c4790612b93565b80601f0160208091040260200160405190810160405280929190818152602001828054611c7390612b93565b8015611cc05780601f10611c9557610100808354040283529160200191611cc0565b820191906000526020600020905b815481529060010190602001808311611ca357829003601f168201915b5050506004909301549192505060ff1685565b6000858152600360205260409020611ceb8582612ede565b506000858152600360208190526040918290206001810180546001600160a01b038089166001600160a01b031992831617909255600280840180549389169390921692909217905591018390559051869190611d48908790612d94565b9081526020016040518091039020819055508084604051611d699190612d94565b604051908190038120878252907f0c19bb44b59579be200a2b8014813f052e8d673471778b18db3aae536dce7ba59060200160405180910390a35050505050565b600042818060075b60248111611f5b57600060015b6001600160a01b03881660009081526006602052604090206004015465ffffffffffff168111611f3d576001600160a01b0380891660009081526009602090815260408083208584528252808320815160a081018352815486168152600182015490951692850192909252600282015490840152600381018054929392606084019190611e4b90612b93565b80601f0160208091040260200160405190810160405280929190818152602001828054611e7790612b93565b8015611ec45780601f10611e9957610100808354040283529160200191611ec4565b820191906000526020600020905b815481529060010190602001808311611ea757829003601f168201915b50505091835250506004919091015460ff1615156020909101526080810151909150611f2a576000611ef78589846110c0565b5090508015611f2857611f0a8188612c17565b965081602001516001600160a01b031684611f259190612c17565b93505b505b5080611f3581612c8d565b915050611dbf565b508015611f48578092505b5080611f5381612c8d565b915050611db2565b50610c0d8183612ca6565b60008080600d5b60128111612132576000915060015b6001600160a01b038716600090815260066020526040902060030154600160801b900465ffffffffffff16811161211f576001600160a01b03808816600090815260076020908152604080832085845282529182902082516080810184528154851681526001820154909416918401919091526002810154918301919091526003015460ff1615156060820181905261210c57600061201c848984610848565b9050801561210a5760055460009061203b90839060ff166103e861177f565b90506120478183612c17565b6001600160a01b03808c166000908152600760209081526040808320898452909152812060010180549395508593909261208391859116612c66565b92506101000a8154816001600160a01b0302191690836001600160a01b03160217905550846012036120e1576001600160a01b038a1660009081526007602090815260408083208784529091529020600301805460ff191660011790555b6120eb8288612c17565b965082602001516001600160a01b0316866121069190612c17565b9550505b505b508061211781612c8d565b915050611f7c565b508061212a81612c8d565b915050611f6d565b5061213d8183612ca6565b9150816000036121a05760405162461bcd60e51b815260206004820152602860248201527f5354414b453a3a207468657265206973206e6f20746f6b656e20746f20626520604482015267756e2d7374616b6560c01b6064820152608401610b45565b60405163a9059cbb60e01b81526001600160a01b038681166004830152602482018490526000917f00000000000000000000000000000000000000000000000000000000000000009091169063a9059cbb906044016020604051808303816000875af1158015612214573d6000803e3d6000fd5b505050506040513d601f19601f820116820180604052508101906122389190612bcd565b9695505050505050565b600061224d60015490565b6001600160a01b03841660009081526006602052604081206004018054929350909182906122829065ffffffffffff16612dc4565b825465ffffffffffff8083166101009490940a848102910219909116179092556001600160a01b0380871660009081526009602090815260408083208584528083528184208054958b166001600160a01b031990961695909517855542600286015588845260038084529184209590935291905292935091909101906117da9082612f9e565b6000808042600d5b60128111612431576000925060015b6001600160a01b038716600090815260066020526040902060030154600160801b900465ffffffffffff16811161241e576001600160a01b038088166000908152600760209081526040808320858452825280832081516080810183528154861681526001820154909516928501929092526002820154908401526003015460ff16151560608301526123b3848684610848565b90508015612409576005546000906123d290839060ff166103e861177f565b90506123de8183612c17565b91506123ea8289612c17565b975082602001516001600160a01b0316876124059190612c17565b9650505b5050808061241690612c8d565b91505061231f565b508061242981612c8d565b915050612310565b50610c0d8284612ca6565b6124446124ac565b6001600160a01b03811661246e57604051631e4fbdf760e01b815260006004820152602401610b45565b612477816124d9565b50565b61142f611796565b6002600454036124a557604051633ee5aeb560e01b815260040160405180910390fd5b6002600455565b6000546001600160a01b0316331461142f5760405163118cdaa760e01b8152336004820152602401610b45565b600080546001600160a01b038381166001600160a01b0319831681178455604051919092169283917f8be0079c531659141344cd1fd0a4f28419497f9722a3daafe3b4186f6b6457e09190a35050565b60006020828403121561253b57600080fd5b5035919050565b60005b8381101561255d578181015183820152602001612545565b50506000910152565b6000815180845261257e816020860160208601612542565b601f01601f19169290920160200192915050565b6080815260006125a56080830187612566565b6001600160a01b0395861660208401529390941660408201526060015292915050565b6001600160a01b038116811461247757600080fd5b600080604083850312156125f057600080fd5b82356125fb816125c8565b9150602083013561260b816125c8565b809150509250929050565b6000806040838503121561262957600080fd5b8235612634816125c8565b946020939093013593505050565b634e487b7160e01b600052604160045260246000fd5b60405160a0810167ffffffffffffffff8111828210171561267b5761267b612642565b60405290565b604051601f8201601f1916810167ffffffffffffffff811182821017156126aa576126aa612642565b604052919050565b801515811461247757600080fd5b600080600083850360c08112156126d657600080fd5b84359350602085013592506080603f19820112156126f357600080fd5b506040516080810181811067ffffffffffffffff8211171561271757612717612642565b6040908152850135612728816125c8565b81526060850135612738816125c8565b60208201526080850135604082015260a0850135612755816126b2565b606082015292959194509192509050565b600067ffffffffffffffff82111561278057612780612642565b50601f01601f191660200190565b600082601f83011261279f57600080fd5b81356127b26127ad82612766565b612681565b8181528460208386010111156127c757600080fd5b816020850160208301376000918101602001919091529392505050565b6000602082840312156127f657600080fd5b813567ffffffffffffffff81111561280d57600080fd5b610eaf8482850161278e565b60006020828403121561282b57600080fd5b8135612836816125c8565b9392505050565b80356001600160781b038116811461152657600080fd5b60008060006060848603121561286957600080fd5b8335612874816125c8565b92506128826020850161283d565b9150604084013567ffffffffffffffff81111561289e57600080fd5b6128aa8682870161278e565b9150509250925092565b6000806000606084860312156128c957600080fd5b8335925060208401359150604084013567ffffffffffffffff808211156128ef57600080fd5b9085019060a0828803121561290357600080fd5b61290b612658565b8235612916816125c8565b81526020830135612926816125c8565b60208201526040838101359082015260608301358281111561294757600080fd5b6129538982860161278e565b60608301525060808301359250612969836126b2565b8260808201528093505050509250925092565b6000806040838503121561298f57600080fd5b823567ffffffffffffffff808211156129a757600080fd5b6129b38683870161278e565b935060208501359150808211156129c957600080fd5b506129d68582860161278e565b9150509250929050565b6000806000606084860312156129f557600080fd5b8335612a00816125c8565b92506020840135612882816125c8565b600060208284031215612a2257600080fd5b813560ff8116811461283657600080fd5b600080600060608486031215612a4857600080fd5b505081359360208301359350604090920135919050565b60008060008060808587031215612a7557600080fd5b8435612a80816125c8565b93506020850135612a90816125c8565b9250612a9e6040860161283d565b9396929550929360600135925050565b606081526000612ac16060830186612566565b6020830194909452506001600160a01b0391909116604090910152919050565b6001600160a01b038681168252851660208201526040810184905260a060608201819052600090612b1490830185612566565b905082151560808301529695505050505050565b600080600080600060a08688031215612b4057600080fd5b85359450602086013567ffffffffffffffff811115612b5e57600080fd5b612b6a8882890161278e565b945050604086013592506060860135612b82816125c8565b949793965091946080013592915050565b600181811c90821680612ba757607f821691505b602082108103612bc757634e487b7160e01b600052602260045260246000fd5b50919050565b600060208284031215612bdf57600080fd5b8151612836816126b2565b634e487b7160e01b600052601160045260246000fd5b808202811582820484141761084257610842612bea565b8082018082111561084257610842612bea565b634e487b7160e01b600052601260045260246000fd5b60006001600160a01b0383811680612c5a57612c5a612c2a565b92169190910492915050565b6001600160a01b03818116838216019080821115612c8657612c86612bea565b5092915050565b600060018201612c9f57612c9f612bea565b5060010190565b8181038181111561084257610842612bea565b6001600160801b03818116838216019080821115612c8657612c86612bea565b6020808252602b908201527f5354414b453a3a20616d6f756e742073686f756c64206265206772656174657260408201526a103a3430b7103d32b9379760a91b606082015260800190565b60208082526030908201527f5354414b453a3a20757365722073686f756c64206e6f7420626520657175616c60408201526f20746f2061646472657373207a65726f60801b606082015260800190565b6001600160a01b03828116828216039080821115612c8657612c86612bea565b60008251612da6818460208701612542565b9190910192915050565b600082612dbf57612dbf612c2a565b500490565b600065ffffffffffff808316818103612ddf57612ddf612bea565b6001019392505050565b600060208284031215612dfb57600080fd5b815167ffffffffffffffff811115612e1257600080fd5b8201601f81018413612e2357600080fd5b8051612e316127ad82612766565b818152856020838501011115612e4657600080fd5b610c0d826020830160208601612542565b6020815260006128366020830184612566565b60008060408385031215612e7d57600080fd5b82519150602083015161260b816125c8565b601f821115612ed957600081815260208120601f850160051c81016020861015612eb65750805b601f850160051c820191505b81811015612ed557828155600101612ec2565b5050505b505050565b815167ffffffffffffffff811115612ef857612ef8612642565b612f0c81612f068454612b93565b84612e8f565b602080601f831160018114612f415760008415612f295750858301515b600019600386901b1c1916600185901b178555612ed5565b600085815260208120601f198616915b82811015612f7057888601518255948401946001909101908401612f51565b5085821015612f8e5787850151600019600388901b60f8161c191681555b5050505050600190811b01905550565b818103612fa9575050565b612fb38254612b93565b67ffffffffffffffff811115612fcb57612fcb612642565b612fd981612f068454612b93565b6000601f82116001811461300d5760008315612ff55750848201545b600019600385901b1c1916600184901b1784556117da565b600085815260209020601f19841690600086815260209020845b838110156130475782860154825560019586019590910190602001613027565b5085831015612f8e5793015460001960f8600387901b161c19169092555050600190811b0190555056fea2646970667358221220a279788fc1bd0d192d67aa3262c4639318394612ce7da4a39ae7e1eb2b29b70d64736f6c63430008140033",
  "linkReferences": {},
  "deployedLinkReferences": {}
}